:020000040800F2
:100000000806002005010008DF1900084D18000847
:10001000DD1900081F020008292000080000000068
:100020000000000000000000000000005D1C00084F
:100030002D02000800000000E11900085F1C000804
:100040001F0100081F0100081F0100081F01000810
:100050001F0100081F0100081F0100081F01000800
:100060001F0100081F0100081F0100081F010008F0
:100070001F0100081F0100081F01000821020008DD
:100080001F0100081F0100081F0100081F010008D0
:100090001F0100081F0100081F0100081F010008C0
:1000A0001F0100081F0100081F0100081F010008B0
:1000B000C51C00081F0100081F0100081F010008DF
:1000C0001F0100081F0100081F0100081F01000890
:1000D0001F010008F11F00081F0100081F01000890
:1000E0001F0100081F0100081F010008DFF810D0E1
:1000F00000F074F800480047F5240008AFF30080D2
:10010000080600200648804706480047FEE7FEE74D
:10011000FEE7FEE7FEE7FEE7FEE7FEE7FEE7FEE7B7
:10012000C11C0008ED000008202A04DB203A21FA57
:1001300002F00021704721FA02F3D040C2F1200200
:100140009140084319467047D2B201E000F8012BF4
:10015000491EFBD270470022F6E710B513460A4647
:1001600004461946FFF7F0FF204610BD421C10F868
:10017000011B0029FBD1801A70472DE9F05F05466D
:10018000002092469B4688460646814640241BE056
:100190002846414647462246FFF7C6FF53465A4681
:1001A000C01A914110D311461846224600F028F893
:1001B0002D1A67EB01084F4622460120002100F06E
:1001C0001FF817EB00094E41201EA4F10104DFDCEB
:1001D000484631462A464346BDE8F09F064C074D47
:1001E00006E0E06840F0010394E807009847103407
:1001F000AC42F6D3FFF77EFF8C280008AC2800083D
:10020000202A04DB203A00FA02F1002070479140D6
:10021000C2F1200320FA03F3194390407047FEE730
:10022000014800F099B80000B4010020704772B690
:10023000FEE70022AFF3008030B50E4B05460120EB
:100240005C7A012C15D8587A00241C54587A03EB98
:10025000800045605D7A03F108002A54587A421CF8
:100260005A72303008703A2048702F208870CC7055
:10027000002030BDF801002010B590F821100022B8
:10028000022905D00421816380F82020012010BDBF
:1002900001680B6823F00E030B6001680B6823F004
:1002A00001030B6090F84030C46B012101FA03F3A5
:1002B000636080F8211080F82020104610BD0000F7
:1002C00010B590F821100024022903D00421816385
:1002D00001243DE001680A6822F00E020A6001680C
:1002E0000A6822F001020A601A4A0168914201D1AB
:1002F000012121E0174A1432914201D110211BE063
:10030000144A2832914201D1891515E0114A3C3234
:10031000914201D189140FE00E4A5032914202D12C
:100320004FF4803108E00B4A6432914202D14FF41D
:10033000801101E04FF08071064A083A51600121B6
:1003400080F82110002180F82010416B01B188470E
:10035000204610BD080002402DE9F05FC16B0C681B
:1003600001680B68D0F840C0042202FA0CF2494D33
:10037000DFF824A1494E4A4FDFF828B1DFF828E121
:1003800022422CD05A072AD50A68920603D40A685A
:1003900022F004020A600168A94201D1042219E096
:1003A000514501D1402215E0B14202D14FF48062A3
:1003B00010E0B94202D14FF480420BE0594502D11E
:1003C0004FF4802206E0714502D14FF4800201E033
:1003D0004FF080622F4908394A60C16A3BE04FF014
:1003E000020808FA0CF818EA040F4FF000094FF061
:1003F000010235D05FEA837832D50B689B0605D4BD
:100400000B6823F00A030B6080F821200168A942E1
:1004100001D1022219E0514501D1202215E0B1425B
:1004200002D14FF4007210E0B94202D14FF40052F1
:100430000BE0594502D14FF4003206E0714502D17C
:100440004FF4001201E04FF00072124908394A607F
:1004500080F82090816A00291AD0BDE8F05F084733
:10046000082505FA0CF5254212D01B0710D50B689C
:1004700023F00E030B6090F84010C36B02FA01F1F9
:100480005960826380F8212080F82090016BE2E7B8
:10049000BDE8F09F080002401C000240300002400E
:1004A00044000240580002406C00024030B528B3BE
:1004B00008C8134914221944B1FBF2F18900C16341
:1004C00010498163022141771A6843F6F0718A432B
:1004D000D0E900142143D0E902452C4321430469AB
:1004E0002143446921438469214311431960002158
:1004F0004163012242770177084630BD012030BDBB
:10050000F8FFFDBF0000024070B5044600F00CF992
:100510000546601C02D004480078044400F004F949
:10052000401BA042FAD370BD440000202DE9F84FD3
:10053000DFF8B891002409F1040A0AF1040B2346FC
:100540000F270BF1040EC9E00125A5402A40AA425D
:100550007DD1674ED1F804C0ACEB0608B44532D06B
:1005600014DCBCF1030F3AD009DCBCF1000F2AD037
:10057000BCF1010F1CD0BCF1020F31D11DE0BCF168
:10058000110F17D0BCF1120F2AD119E0B8F5881F4E
:1005900019D006DCB8F5803F15D0B8F5801F1FD103
:1005A00011E0B8F5001F0ED0B8F5041F18D10AE00D
:1005B000CB6815E0CB681B1D12E0CB6808330FE059
:1005C000CB680C330CE08B682BB1012B4FF0080388
:1005D00003D0456104E0042302E0056100E000234C
:1005E000FF2A01D8064601E000F104064FEA84051F
:1005F00001D9A5F12005D6F8008007FA05FC28EA04
:100600000C0803FA05F548EA0508C6F800804D68AD
:10061000ED0062D5374DAE6946F00106AE61AD69B9
:1006200024F0030605F001050095334D06EB050C9B
:10063000DCF80850A607360F07FA06F825EA080581
:10064000DFF8B880404503D14FF0000817E044E0E0
:10065000DFF8AC80404502D14FF001080FE0DFF831
:10066000A480404502D14FF0020808E0DFF89880EE
:10067000404502D14FF0030801E04FF0040808FAAA
:1006800006F848EA0508CCF808804D68D9F80060FB
:10069000ED034D4601D5164300E096432E604D68AC
:1006A000DAF80060AD03554601D5164300E09643E5
:1006B0002E604D68DBF80060ED025D4601D5164303
:1006C00000E096432E604D68DEF80060AD0275468E
:1006D00001D5164300E096432E60641C0D682A463F
:1006E000E5407FF431AFBDE8F88F00000004014021
:1006F00000001110001002400000014000080140FD
:10070000000C01400010014000140140C26821EAC1
:1007100002030A4043EA0241016170470AB10161E4
:1007200070470904FBE7000001488068704700003B
:1007300044000020024881680278114481607047BB
:1007400044000020074810B5016841F01001016025
:10075000032000F075F8002000F006F800F024F8FF
:10076000002010BD0020024070B50D4D04464FF42E
:100770007A712878B1FBF0F00A490968B1FBF0F012
:1007800000F071FC48B9102C07D200222146501EFF
:1007900000F036F800206C6070BD012070BD0000D4
:1007A00044000020500000200C4808B5816941F049
:1007B00001018161816901F001010091C16941F08C
:1007C0008051C161C06900F08050009004484168C8
:1007D00021F0E06141F00071416008BD001002406D
:1007E00000000140002809DB00F01F0201219140B8
:1007F0004009800000F1E020C0F8001170470000BF
:10080000F0B40E4B1B680C46C3F30223C3F107057B
:10081000042D00D90425191D072901D2002300E069
:10082000DB1E012606FA05F1491E214099409E4033
:10083000761E16403143F0BC01F00CBC0CED00E01C
:10084000064900F0070208684FF6FF03184040EA27
:100850000220034A10430860704700000CED00E0DE
:100860000000FA052DE9F0470F46050061D0434E20
:10087000306800F00700B84209D2306820F0070065
:1008800038433060306800F00700B84251D1286822
:100890003B4C810712D5400703D5606840F4E06007
:1008A00060602878000703D5606840F4605060609D
:1008B0006068A96820F0F000084360602878C007ED
:1008C00028D06868012810D02168022810D0890734
:1008D00000292EDA616821F0030101436160FFF70E
:1008E00023FF804641F288390DE021688903EFE754
:1008F0008901EDE7FFF718FFA0EB0801494502D990
:100900000320BDE8F0876068696800F00C00B0EB78
:10091000810FEFD1306800F00700B8420BD9306882
:1009200020F0070038433060306800F00700B8421C
:1009300001D00120E5E72878400705D56068E9681F
:1009400020F4E060084360602878000706D56068FE
:10095000296920F4605040EAC100606000F038F876
:100960006168084AC1F30311515CC8400649086038
:1009700006480068FFF7F8FE0020C2E700200240AA
:100980000010024074280008500000204800002099
:100990000448054900684968044AC1F30221515CD2
:1009A000C840704750000020001002408428000812
:1009B0000448054900684968044AC1F3C221515CF2
:1009C000C8407047500000200010024084280008F2
:1009D00012A185B00FC98DE80F0014A0144A006859
:1009E00004905168134801F00C03042B10D0082B1D
:1009F0000ED1C1F38343C9031DF803000AD5516822
:100A000004AAC1F34041515C0A4A5043B0FBF1F0E3
:100A100005B0704708494843FAE70000020304059F
:100A2000060708090A0B0C0D0E0F1010010200003A
:100A30000010024000127A0000093D002DE9F84F35
:100A4000040070D02078C04DC00749D06868C0F35A
:100A50008100012807D06868C0F38100022809D10D
:100A60006868C00306D52868800339D56068002807
:100A7000E7D035E06068B0F5803F0BD010B1B0F53D
:100A8000A02F11D0286820F480302860286820F436
:100A9000802002E0286840F480302860606890B1CF
:100AA000FFF742FE06460AE0286840F480202860EE
:100AB000F0E700BFFFF738FE801B642873D8286872
:100AC0008003F7D50CE0FFF72FFE064605E000BFD8
:100AD000FFF72AFE801B6428F0D828688003F7D42B
:100AE00020789A4E80074FF001094FF0000839D561
:100AF000686810F00C0F07D06868C0F38100022806
:100B000009D16868C00306D42868800714D5206915
:100B1000012808D110E02069B0B1C6F80090FFF7B5
:100B200003FE074605E00AE1FFF7FEFDC01B0228B1
:100B3000C4D828688007F7D52868616920F0F800D4
:100B400040EAC10028600DE0C6F80080FFF7ECFD28
:100B5000074604E0FFF7E8FDC01B022823D82868F9
:100B60008007F7D4207800072CD57948A169D9B13E
:100B7000C0F80090FFF7D8FD074604E0FFF7D4FD6A
:100B8000C01B02280FD8686A8007F7D571484FF458
:100B9000FA510068B0FBF1F0009000BF0098411ED0
:100BA0000091FAD20EE080E0C0F80080FFF7BCFDB3
:100BB000074604E0FFF7B8FDC01B022875D8686A35
:100BC0008007F7D42078400760D5E8690027C00087
:100BD00008D4E86940F08050E861E869012700F036
:100BE000805000905C480168C90513D401688346B1
:100BF00041F480710160FFF797FD824606E000BF77
:100C0000FFF792FDA0EB0A0064284ED8DBF8000045
:100C1000C005F5D5E06801280AD008B1052813D031
:100C2000286A20F001002862286A20F0040002E00F
:100C3000286A40F001002862E06841F2883B98B1E0
:100C4000FFF772FD82460BE0286A40F0040028623C
:100C5000EEE700BFFFF768FDA0EB0A0159455AD83F
:100C6000286A8007F6D50CE0FFF75EFD824605E0B6
:100C7000FFF75AFDA0EB0A0159454CD8286A8007B6
:100C8000F6D41FB1E86920F08050E861E06988B3CC
:100C90006968C1F38101022944D00228C6F8608046
:100CA00004D0FFF741FD044638E034E0FFF73CFD97
:100CB000074604E0FFF738FDC01B02282BD8286840
:100CC0008001F7D4206AB0F5803F05D16868A1683B
:100CD00020F4003008436860D4E9080108436968DB
:100CE00021F4741108436860C6F86090FFF71CFD9A
:100CF000044606E025E000BFFFF716FD001B0228B2
:100D000009D828688001F7D51BE000BFFFF70CFD6C
:100D1000001B022802D90320BDE8F88F2868800153
:100D2000F4D40EE00128F7D06868226A00F480311C
:100D3000914204D1616A00F47010884201D0012010
:100D4000EAE70020E8E7000000100240000042420D
:100D500080044242500000200070004070B5040042
:100D600009D0606A002540B125616561A56294F8EB
:100D7000510040B10CE0012070BD6068B0F5827F89
:100D8000F4D0E561F2E784F85050204600F040F8D6
:100D9000022084F851002068016821F040010160C0
:100DA000A088218900F4827001F404410843A189DC
:100DB00001F400610843217C01F002010843217D18
:100DC00001F001010843218B01F400710843217FE8
:100DD00001F03801084394F8201001F08001084325
:100DE000218D01F40051084321680860A0690421A5
:100DF00001EA1040216848602068C16921F400615F
:100E0000C1616565012084F85100002070BD0000BB
:100E100030B585B0002400940194029403940068D6
:100E20001549884225D11548C16941F48041C16105
:100E3000C16901F480410491816941F00801816137
:100E400080690F4D00F0080004904FF4204000909E
:100E5000022001900320039069462846FFF766FBB5
:100E60004FF48040CDE90004694628460294FFF71C
:100E70005DFB05B030BD00000038004000100240AE
:100E8000000C01402DE9F84F044690F8500000276F
:100E90000A9E1D4692468B464FF0010901280ED04E
:100EA000012084F85000FFF73FFC804694F8510081
:100EB000616801280CD0B1F5827F07D102E00220E1
:100EC000BDE8F88FA16809B9042801D00227C2E063
:100ED000BBF1000F27D0BAF1000F24D01DB394F856
:100EE0005100042802D0052084F8510000206065DC
:100EF000C4F838A0E587A587C4F830B0E586A58694
:100F00002064606420680168490603D4016841F0E8
:100F100040010160E068B0F5006F606805D0E8B39B
:100F2000012D46D07FE0012795E008B1012D39D190
:100F3000206B21680088C860206B801C2063E08ED5
:100F4000401EE0862EE02068816889070FD5E18E7B
:100F500069B1B9F1010F0AD1216B0988C160206B19
:100F6000801C2063E08E401EE0864FF00009206860
:100F70008168C9070CD0E18F51B1C068A16B0880AE
:100F8000A06B801CA063E08F401EE0874FF001093A
:100F9000FFF7CAFBA0EB0800B04200E009E001D374
:100FA000701C50D1E08E0028CDD1E08F0028CAD12E
:100FB0003FE0206B216800780873206B401C2063A1
:100FC000E08E401EE0862EE02068816889070FD5FC
:100FD000E18E69B1B9F1010F0AD1216B0978017372
:100FE000206B401C2063E08E401EE0864FF000091D
:100FF00020688168C9070CD0E18F51B1C068A16B2E
:101000000870A06B401CA063E08F401EE0874FF08B
:101010000109FFF789FBA0EB0800B04202D3701C66
:1010200001D010E07EB1E08E0028CDD1E08F002805
:10103000CAD142463146204600F084FD28B101273E
:101040002020606507E0032705E0A06818B9206844
:10105000C16880680090012084F85100002084F865
:10106000500038462CE710B5401EB0F1807F01D308
:10107000012010BD4FF0E02460610F21601700F0E7
:10108000E9FF0020A06107202061002010BD70470B
:101090007047000070B590F83C20012A26D001244A
:1010A00080F83C40022280F83D2003685A689D6821
:1010B00022F070060A6832435A600D4B02689A4269
:1010C00008D0B2F1804F05D00A4B9A4202D00A4BA9
:1010D0009A4204D1496825F080031943916080F851
:1010E0003D40002180F83C10084670BD022070BDD4
:1010F000002C0140000400400008004010B504002E
:1011000003D094F83D0010B107E0012010BD00208D
:1011100084F83C00204600F01FF8022084F83D00CF
:10112000211D206800F0D4FD012084F8460084F8D9
:101130003E0084F83F0084F8400084F8410084F8C1
:10114000420084F8430084F8440084F8450084F8A1
:101150003D00002010BD000008B50068B0F1804FD0
:1011600012D10A48C16941F00101C161C069002280
:1011700000F00100009011461C20FFF741FBBDE884
:1011800008401C20FFF72EBB08BD000000100240E5
:1011900090F83D10012901D001207047022180F80C
:1011A0003D100168CA6842F00102CA6000680B493C
:1011B000884208D0B0F1804F05D00949884202D05A
:1011C0000849884204D1816801F00701062903D04B
:1011D000016841F00101016000207047002C0140CE
:1011E000000400400008004070B5044690F83C0040
:1011F000012817D0012584F83C50022084F83D00D6
:101200002068826822F0770222F47F4282600868B8
:10121000502830D00DDC20284DD005DC98B31028A4
:101220003BD148E0022070BD302844D0402834D162
:1012300039E0602828D0702806D0B0F5805F2CD027
:10124000B0F5005F29D10AE0CB68D1E9012120681F
:1012500000F074FD2068816841F0770109E0CB68F7
:10126000D1E90121206800F069FD2068816841F41E
:101270008041816011E0CA684968206800F070FD13
:101280005021206807E016E0CA684968206800F02D
:1012900078FD6021206800F05BFD84F83D5000205F
:1012A00084F83C0070BDCA684968206800F058FDA9
:1012B00040212068EFE7226801461046EBE77047BF
:1012C00070B50446006801694FF00005C9438907FD
:1012D00015D4C168C943890711D4E91E01610120F1
:1012E0002077206880698007204602D0FFF7E7FF5B
:1012F00004E000F098F8204600F096F82577206882
:101300000169C943490717D4C168C943490713D4C0
:101310006FF004010161022020772068806910F4D9
:10132000407F204602D0FFF7CAFF04E000F07BF8C0
:10133000204600F079F8257720680169C94309073C
:1013400016D4C168C943090712D46FF008010161BE
:10135000042020772068C0698007204602D0FFF76C
:10136000AEFF04E000F05FF8204600F05DF825775E
:1013700020680169C943C90617D4C168C943C906B1
:1013800013D46FF010010161082020772068C06934
:1013900010F4407F204602D0FFF791FF04E000F0F8
:1013A00042F8204600F040F8257720680169C943DB
:1013B000C90708D1C168C943C90704D1891E0161A1
:1013C000204600F033F820680169C943090609D4B2
:1013D000C168C943090605D46FF080010161204648
:1013E000FFF755FE20680169C943490609D4C16861
:1013F000C943490605D46FF040010161204600F061
:1014000021F820680169C94389060BD4C168C94322
:10141000890607D46FF0200101612046BDE87040C5
:10142000FFF736BE70BD7047704700000349884221
:1014300003D103490888401C088070470801002038
:10144000020000207047704770470000F8B502683E
:1014500004461068D168536910F00F0F4FF0000573
:1014600053D003F0010601F4907737435FD0C207F1
:1014700005D0CA0503D5226C42F00102226442075E
:1014800005D5DA0703D0226C42F0020222648207FB
:1014900005D5DA0703D0226C42F004022264020769
:1014A00007D501F02002324303D0226C42F008023B
:1014B0002264226C002A34D0800604D5880602D526
:1014C000204600F090FC20684069216CC0F3801039
:1014D000090700D430B3204600F06DFC2068416954
:1014E00049061BD5416921F040014161A06BA8B1BB
:1014F00058494163A06BFEF7E3FE002811D0A06BB2
:10150000416B01B0BDE8F040084783060FD58B065C
:101510000DD52046BDE8F84000F065BC2046FFF739
:1015200093FFF8BD2046FFF78FFF2564F8BD266BBB
:101530002023012E52D1C60650D5CE064ED51068B6
:1015400050680090506940062AD5A16B0868406831
:101550000004000CEAD0A68D8642E7D9E0858869B0
:10156000202818D0D06820F48070D06020684169AD
:1015700021F0010141612068416921F04001416190
:1015800084F83E3025632068C16821F01001C160F5
:10159000A06BFEF771FEA08DE18D401A81B219E0BB
:1015A000A08DE18D401A81B2E08D0028BED00029C7
:1015B000BCD0D06820F49070D0602068426922F0DE
:1015C0000102426184F83E3025632068C26822F03F
:1015D0001002C2602046FFF736FFF8BD05062BD586
:1015E0000D0629D594F83D002128F6D1A068B0F564
:1015F000805F01D12069B0B1206A411C216221685D
:1016000000784860E08C401E0004000CE084E4D1C7
:101610002068C16821F08001C1602068C16841F084
:101620004001C160F8BD206A0088C0F30800506026
:10163000206A801C2062E5E74006F3D54806F1D514
:10164000D168204621F04001D16084F83D3000F09F
:10165000FCF8F8BDA71D000870B5040004D094F88C
:101660003D00002510B106E0012070BD84F83C501B
:10167000204600F023F8242084F83D002068C1684B
:1016800021F40051C160204600F008FC2068016987
:1016900021F4904101612068416921F02A014161F2
:1016A0002068C16841F40051C1602564202084F89D
:1016B0003D0084F83E00002070BD000070B586B08B
:1016C000002506460095019502950395006822497C
:1016D00088423ED12149886940F480408861886908
:1016E00000F480400490886940F0040088618869B3
:1016F0001B4C00F00400049048150090022001905B
:101700000320039069462046FEF710FF2015CDE91F
:101710000005694620460295FEF708FF124C114865
:10172000C4E900058020C4E9025025616561A56116
:101730002046E561FEF7BAFE08B1FEF778FDB46316
:101740000022114625206662FFF75AF82520FFF790
:1017500049F806B070BD000000380140001002409A
:101760000008014058000240B401002090F83E30CB
:10177000202B0ED159B152B190F83C30012B08D03A
:10178000012380F83C300023036300F0E3BB012019
:1017900070470220704770472DE9F843044690F8DF
:1017A0003D001F4616460D4620284CD1C5B1BEB19E
:1017B00094F83C00012846D0012084F83C004FF00A
:1017C0000008C4F84080212084F83D00FEF7ACFFFB
:1017D000A6848146E684A068B0F5805F03D004E06B
:1017E0000120BDE8F883206928B12E465FF000058E
:1017F00084F83C800EE00026FAE78021204600F0C5
:10180000C4FBA0B9AEB116F8010B21684860E08CAA
:10181000401EE084E08C4B464FF000020097002809
:10182000EBD14FF04001204600F0AFFB30B1032078
:10183000D7E735F8020BC0F30800E6E7202084F86C
:101840003D000020CDE70220CBE77047FEE7000017
:1018500010B504490448FEF7ECFC0249491E087023
:1018600010BD00003D000020280000202DE9F041BF
:1018700086B000252B480095019502950395816956
:1018800041F010018161816901F0100104918169C9
:1018900041F020018161816901F020010491816999
:1018A00041F004018161816901F0040104918169C1
:1018B00041F00801816180691B4E00F008004FF47F
:1018C00000540490002221463046FEF727FF174FB0
:1018D000002208213846FEF721FFDFF8548000225D
:1018E00018214046FEF71AFF00940124CDE9014576
:1018F000694630460394FEF719FE08208DE8310052
:10190000694638460394FEF711FE18208DE8310031
:101910000220039069464046FEF708FE06B0BDE887
:10192000F08100000010024000100140000801405A
:10193000000C01400F4810B50D4901604FF4827151
:10194000416000218160C1604FF400720161C0E913
:1019500005120822C0E90721416281620A21C162A1
:10196000FFF7FCF9002801D072B6FEE710BD0000B9
:1019700000380040B000002010B586B000241648A2
:10198000009401940294039404944FF080410594D0
:10199000016049F63F41C0E901140A21C0E903147E
:1019A0008461FFF7ABFB08B172B6FEE74FF48050DD
:1019B000009069460848FFF717FC08B172B6FEE7C9
:1019C000049404A904480594FFF764FB002801D09F
:1019D00072B6FEE706B010BD08010020FEE7FEE784
:1019E0007047000003480021018001880229FCD3D0
:1019F000704700000200002070B50546512000F03D
:101A000059F878B9FF2000F00DF900244FF6FF7661
:101A100000F0A8F8641CA4B2FE2801D0B442F7D3A9
:101A2000B44201D3052070BD00244FF4007600BFFE
:101A300000F098F82855641CA4B2B442F8D3FF20F3
:101A400000F0F0F8FF2000F0EDF8002070BD70B558
:101A50000546582000F02EF838BBFF2000F0E2F8D1
:101A6000FE2000F0DFF800244FF40076285D00F03F
:101A7000D9F8641CA4B2B442F8D3FF2000F0D2F825
:101A8000FF2000F0CFF800F06DF8052181430CD164
:101A900000244FF6FF7500F065F8641CA4B2FF281F
:101AA00001D0AC42F7D3AC4201D3062070BD002078
:101AB00070BD000070B504460D46000607D504F061
:101AC0007F0400217720FFF7F5FF012836D81C4E50
:101AD000012208213046FEF721FEFF2000F0A2F887
:101AE000002208213046FEF719FEFF2000F09AF888
:101AF000204600F097F8280E00F094F8C5F3074050
:101B000000F090F8C5F3072000F08CF8E8B200F080
:101B100089F80120402C02D0482C02D002E0952008
:101B200000E0872000F07EF85FF00A0400F01AF869
:101B3000010603D5641E14F0FF04F7D170BD000048
:101B40000008014038B50B4600920446002280216F
:101B500000F00CF8002804D0606D40F020006065B3
:101B6000032038BDFF2000F05DB800002DE9F843E8
:101B70001E46914688460446089DFEF7D5FD401B4B
:101B8000351AFEF7D1FD074625480068C0F3CB3073
:101B9000684338E0701C37D0FEF7C6FDC01BA84272
:101BA00003D215B1009860B32CE02068416821F0A1
:101BB000E00141606068B0F5827F0BD1A068B0F5AC
:101BC000004F02D0B0F5806F04D12068016821F089
:101BD00040010160A06AB0F5005F09D1206801688A
:101BE00021F4005101602068016841F40051016056
:101BF000012084F85100002084F850000320BDE843
:101C0000F8830025401E00902068816838EA0100B2
:101C100004D000214945BDD10020F0E70121F9E7BA
:101C20005000002001B582B000208DF80400401E55
:101C30000090012301AA02A90648FFF723F928B161
:101C400000224FF400510448FEF768FD9DF804009F
:101C50000EBD0000B0000020001001407047FEF7EC
:101C600069BD30B58FB028216846FEF774FA14219B
:101C70000AA8FEF770FA01210804CDE9001000243B
:101C8000029402250491CDE907504FF440200990B9
:101C90006846FEF7D3FE08B172B6FEE70F20CDE925
:101CA0000A054FF48060CDE90C4001210AA80E948A
:101CB000FEF7D8FD002801D072B6FEE70FB030BDA8
:101CC000704700000148FFF7FBBA00000801002040
:101CD000F0B50268164B174C174D4FF080479842ED
:101CE00005D0B84203D0A04201D0A84203D122F0CF
:101CF00070064A683243984205D0B84203D0A042E9
:101D000001D0A84203D122F44074CA6822434C692E
:101D100022F08002224302608A68C2620A688262FC
:101D2000984201D10969016301214161F0BD0000C0
:101D3000002C0140000400400008004010B58468F9
:101D400042EA032224F47F440A432243826010BD06
:101D5000826822F070020A4342F0070181607047F6
:101D600010B5036A046A24F001040462846924F053
:101D7000F00444EA021423F00A020A438461026276
:101D800010BD10B5036A23F0100303628369046A6F
:101D900023F4704343EA023224F0A00343EA011122
:101DA0008261016210BD10B5406A0021C185C18405
:101DB000FFF74AFB10BD0168CA6822F49072CA603E
:101DC00001684A6922F001024A61016B012904D1CC
:101DD0000168CA6822F01002CA60202180F83E1013
:101DE00000210163704708B590F83E10222901D008
:101DF000022008BD82684FF480539A4201D10169E4
:101E000021B1816A9A421BD04AB10AE00268816A14
:101E10005268C2F308020A80816A891C08E00269DC
:101E200072B10268526802F07F020A70816A491C2E
:101E30008162C18D491E0904090CC18503D019E0D6
:101E400002685268F1E70168CA6822F02002CA609D
:101E50000168CA6822F48072CA6001684A6922F087
:101E600001024A61202180F83E10016B012903D054
:101E7000FFF791FC002008BD002101630168CA68DA
:101E800022F01002CA6001680A68D20602D50A6808
:101E900049680091818DFFF7D6FAEBE770B50446EB
:101EA00000680169E26821F4405111430161216930
:101EB000A0680843616908432168CA6841F20C635D
:101EC0009A430243CA6020684169A26921F44071C3
:101ED000114341611E492068884202D1FEF768FD26
:101EE00001E0FEF755FD00EBC00101EB0012606858
:101EF00064218000B2FBF0F3B3FBF1F36FF018063E
:101F00007343B2FBF0F5B2FBF0F605EB8305322329
:101F100003EB0515B5FBF1F5B6FBF1F605F0F005A1
:101F200005EB0615B2FBF0F6B2FBF0F0B0FBF1F0FA
:101F30006FF01802504306EB800003EB0010B0FB7B
:101F4000F1F0216800F00F002844886070BD0000A7
:101F50000038014081628285C2850021016422220D
:101F600080F83E2080F83C100168CA6842F4807214
:101F7000CA6001684A6942F001024A610068C168AA
:101F800041F02001C160002070472DE9F0419846E2
:101F900017460E460446069D1DE0681C1BD02DB159
:101FA000FEF7C2FBA0EB0800A84214D92068C16864
:101FB00021F4D071C1602068416921F001014161C3
:101FC000202084F83D0084F83E00002084F83C0086
:101FD0000320BDE8F0812068006836EA000004D0E4
:101FE0000020B842D9D00020F3E70120F9E7000033
:101FF0000148FFF72BBA00005001002002480121E0
:102000000170007870470000240000200120704714
:1020100000207047024801210170007870470000DD
:102020002400002000207047FEE700000FB4084B9A
:1020300010B504A902AA039800F02CF8044602A9DE
:10204000002000F052FA204610BC5DF814FB00009E
:10205000EB2400080907090E002804DB00F1E0204A
:1020600080F80014704700F00F0000F1E02080F8C5
:10207000141D704702E008C8121F08C1002AFAD1D7
:1020800070477047002001E001C1121F002AFBD1F8
:10209000704700002DE9FF4F8DB00F460546002622
:1020A00006E025280BD0DDE90F1290476D1C761C49
:1020B00028780028F5D111B03046BDE8F08F002413
:1020C000A246A1460122E94900E0044315F8013F78
:1020D000203B02FA03F00842F7D128782A2810D0D2
:1020E0006FF02F022878A0F13001092914D80AEBEB
:1020F0008A0102EB410144F0020400EB010A6D1C6D
:10210000F0E701CF5FEA000A03D544F40054CAF1B6
:10211000000A44F002046D1C28782E2817D115F807
:10212000010F44F004042A280ED06FF02F02287803
:10213000A0F1300109290AD809EB890102EB41011C
:1021400000EB01096D1CF2E757F8049B6D1C287821
:102150006C280FD006DC4C2817D068280DD06A28D0
:1021600014D104E0742810D07A280FD10DE044F483
:1021700000140AE044F4801401E044F44014697847
:10218000814202D104F580146D1C6D1C28786E28E4
:102190001ED00CDC632830D004DC00288BD05828FB
:1021A00011D19FE0642867D069280CD164E07328BE
:1021B0002DD004DC6F2872D0702804D194E07528EB
:1021C0006ED078286DD0DDE90F129047761C4BE178
:1021D000C4F30250022806D0032809D0042801CFF6
:1021E00009D0066040E101CFF117C0E900613BE191
:1021F00001CF068038E1067036E117F8040B8DF840
:10220000000000208DF80100EB46012003E057F8A4
:1022100004BB4FF0FF3061074FF0000102D40DE026
:1022200008F10101884649450FDA8045F8DB1BF8C3
:1022300008100029F4D108E008F101018846814224
:10224000FADB1BF808100029F6D1DDE90F23AAEB11
:1022500008008146214600F031F9304400EB0806C1
:1022600004E0DDE90F121BF8010B9047B8F10108FB
:10227000F7D221464846F2E00A21C4F302524FF059
:10228000000B0891022A04D001CFC117032A09D0FC
:102290000AE0FF1D27F00707F7E8020108E02CE03D
:1022A0001EE01FE000B2C117042A01D140B2C117DD
:1022B000021E71F1000206DA0023D0EB030063EB8B
:1022C00001012D2202E0220504D52B228DF82420C5
:1022D000012203E0E20701D02022F7E7904653E015
:1022E0000A210BE0102109E010214FF0000B44F00F
:1022F00004044FF00809089103E008214FF0000B97
:102300000891C4F30252022A04D001CF0021032A0B
:1023100006D006E0FF1D27F00707F7E8020103E0FB
:1023200080B2042A00D1C0B24FF0000822072BD59A
:102330002A78702A07D0DDF820C08CF0100C5CEAF7
:102340000B0C05D00EE040228DF82420012208E07D
:1023500050EA010306D030238DF824308DF8252073
:1023600002229046089B83F0080353EA0B030BD12B
:1023700050EA010201D1620706D530228DF82420EF
:102380004FF00108A9F101092A78582A04D038A28F
:102390000B9208AA0A920BE03AA2F9E75B46089A68
:1023A000FDF7EBFE0B9B9B5C0A9A521E0A92137080
:1023B00050EA0102F2D10A98ADEB000000F1200BC7
:1023C000600702D524F4803401E04FF00109D945BB
:1023D00002DDA9EB0B0000E0002000EB0B01414403
:1023E0000890AAEB010AE00306D4DDE90F23214699
:1023F000504600F063F806444FF0000908E009A9D0
:1024000011F80900DDE90F12904709F10109761C66
:10241000C145F4DBE0030CD5DDE90F23214650462E
:1024200000F04CF8064404E0DDE90F12302090473C
:10243000761C0899481E08900029F5DC08E00A98E7
:102440000A990078491C0A91DDE90F129047761C21
:10245000BBF10001ABF1010BF1DC21465046DDE997
:102460000F2300F019F806446D1C21E6092801002D
:1024700030313233343536373839616263646566FA
:1024800000000000303132333435363738394142BC
:1024900043444546000000002DE9F0410446002574
:1024A0001E461746880404D405E039462020B0476C
:1024B0006D1C641EF9D52846BDE8F0812DE9F04178
:1024C000044600251E469046C80301D5302700E08B
:1024D0002027880404D505E041463846B0476D1CE6
:1024E000641EF9D52846BDE8F0810A68531C0B60CC
:1024F0001070704708B5FEF725F9FFF7B2FBFFF73C
:10250000B5F94E48416941F001014161406900223D
:1025100000F00100009011460F20FEF771F90F2026
:10252000FEF760F9FFF706FAFFF726FA4548444937
:102530000C2201604FF4E131416000218160C160F3
:10254000C0E904128161C161FFF786F808B172B673
:10255000FEE7FFF77DF93B484838FEF719FEFFF725
:1025600041FA00F087F84FF4806421463648FFF7BF
:102570006EFA344821464430FFF73EFA334D0122CB
:1025800010212846FEF7CAF84FF0FF3843460A22CA
:102590002FA12C48FFF700F92A4C4FF47A76C03C63
:1025A00028492022C0392748FFF7E0F83046FDF7D8
:1025B000ABFF207890B1234A022000214432635CB3
:1025C000575CBB4200D00120491C89B22029F6D3B8
:1025D00020B101280ED002281AD029E0082128466F
:1025E000FEF794F810212846FEF790F83046FDF7E4
:1025F0008BFF1DE04346052219A11248FFF7CCF8D6
:10260000012208212846FEF789F8002210210CE05B
:102610004346062214A10B48FFF7BEF80122102101
:102620002846FEF77BF8002208212846FEF776F8B8
:102630004FF400510E48FEF769F8B1E70010024070
:10264000003801405001002004000020000C01402F
:10265000456E74657220706173730D0A000000008E
:102660004261640D0A000000476F6F640D0A0000AC
:10267000001001402DE9FE43012251036948FEF795
:102680004DF8694D4FF0000885F80080674E302006
:10269000F769F0613046FEF761FBDFF894910122A3
:1026A00008214846FEF73AF80024FF20FFF7BAFA5F
:1026B000641CE4B20A2CF8D35C48F761FEF74EFBC9
:1026C000002208214846FEF729F800214020FFF7A4
:1026D000F1F9012802D00120BDE8FE83FF20FFF7B9
:1026E000A1FA4FF4D5714820FFF7E4F94FF0FF3716
:1026F000012809D00021E920FFF7DCF9012868D87A
:1027000002202870E92667E0002402AEFFF72AFACB
:102710003055641CE4B2042CF8D39DF80B109DF8DE
:102720000A00CDE900019DF809309DF8082041A17B
:102730004948FFF77BFC4848FDF718FD82B23B464D
:1027400045494648FFF728F89DF80A00012858D166
:102750009DF80B00AA2854D142F6E0644FF080485F
:1027600003E0641E24B2002C4BD04146E920FFF761
:10277000A1F90028F5D15CB300217A20FFF79AF97E
:1027800030BB0024FFF7EEF93055641CE4B2042C92
:10279000F8D39DF80B109DF80A00CDE900019DF8D3
:1027A00009309DF8082023A12B48FFF73FFC2A4859
:1027B000FDF7DCFC82B23B4627492848FEF7ECFFD8
:1027C0009DF80800400601D50C2000E00420287088
:1027D00017E001202870412646F2A81402E0641E8A
:1027E00024B264B100213046FFF764F90028F6D125
:1027F0002CB14FF400715020FFF75CF908B140464E
:10280000E5E72A7816A11448FFF710FC1248FDF7F7
:10281000ADFC82B23B4610491048FEF7BDFF0020D8
:102820005AE700000010014000000020B000002026
:10283000000801404F43523A20307825303258206A
:102840003078253032582030782530325820307892
:10285000253032580D0A000054000020500100209D
:10286000547970652053443A203078253032580D21
:102870000A00000000000000000000000102030444
:10288000060708090000000001020304AC28000844
:1028900000000020540000007420000800290008F7
:1028A00054000020B405000084200008000000004F
:1028B00048656C6C6F776F726C64000000000000FC
:1028C0000000000000000000000000000000000008
:1028D00001000000FD1F000815200008112000085D
:1028E000252000080D200008000000000000000066
:1028F0000100000010000000000000000024F400AF
:04000005080000ED02
:00000001FF
